{
  "_format": "hh-sol-artifact-1",
  "contractName": "LendingPool",
  "sourceName": "contracts/LendingPool.sol",
  "abi": [
    {
      "inputs": [
        {
          "internalType": "address",
          "name": "_tokenAddress",
          "type": "address"
        }
      ],
      "stateMutability": "nonpayable",
      "type": "constructor"
    },
    {
      "anonymous": false,
      "inputs": [
        {
          "indexed": true,
          "internalType": "address",
          "name": "borrower",
          "type": "address"
        },
        {
          "indexed": false,
          "internalType": "uint256",
          "name": "amount",
          "type": "uint256"
        },
        {
          "indexed": false,
          "internalType": "string",
          "name": "userId",
          "type": "string"
        },
        {
          "indexed": false,
          "internalType": "string",
          "name": "invoiceId",
          "type": "string"
        }
      ],
      "name": "Borrow",
      "type": "event"
    },
    {
      "anonymous": false,
      "inputs": [
        {
          "indexed": true,
          "internalType": "address",
          "name": "lender",
          "type": "address"
        },
        {
          "indexed": false,
          "internalType": "uint256",
          "name": "amount",
          "type": "uint256"
        }
      ],
      "name": "Deposit",
      "type": "event"
    },
    {
      "anonymous": false,
      "inputs": [
        {
          "indexed": true,
          "internalType": "address",
          "name": "borrower",
          "type": "address"
        },
        {
          "indexed": false,
          "internalType": "uint256",
          "name": "amount",
          "type": "uint256"
        },
        {
          "indexed": false,
          "internalType": "string",
          "name": "userId",
          "type": "string"
        },
        {
          "indexed": false,
          "internalType": "string",
          "name": "invoiceId",
          "type": "string"
        },
        {
          "indexed": false,
          "internalType": "bool",
          "name": "payed",
          "type": "bool"
        }
      ],
      "name": "LonePayed",
      "type": "event"
    },
    {
      "inputs": [
        {
          "internalType": "address",
          "name": "",
          "type": "address"
        }
      ],
      "name": "balances",
      "outputs": [
        {
          "internalType": "uint256",
          "name": "",
          "type": "uint256"
        }
      ],
      "stateMutability": "view",
      "type": "function"
    },
    {
      "inputs": [
        {
          "internalType": "address",
          "name": "_borrower",
          "type": "address"
        },
        {
          "internalType": "uint256",
          "name": "_amount",
          "type": "uint256"
        },
        {
          "internalType": "string",
          "name": "_userId",
          "type": "string"
        },
        {
          "internalType": "string",
          "name": "_invoiceId",
          "type": "string"
        }
      ],
      "name": "borrow",
      "outputs": [],
      "stateMutability": "nonpayable",
      "type": "function"
    },
    {
      "inputs": [
        {
          "internalType": "uint256",
          "name": "_amount",
          "type": "uint256"
        }
      ],
      "name": "deposit",
      "outputs": [],
      "stateMutability": "payable",
      "type": "function"
    },
    {
      "inputs": [
        {
          "internalType": "address",
          "name": "_token",
          "type": "address"
        }
      ],
      "name": "getTotalBalance",
      "outputs": [
        {
          "internalType": "uint256",
          "name": "",
          "type": "uint256"
        }
      ],
      "stateMutability": "view",
      "type": "function"
    },
    {
      "inputs": [
        {
          "internalType": "address",
          "name": "_account",
          "type": "address"
        }
      ],
      "name": "getfunds",
      "outputs": [
        {
          "internalType": "uint256",
          "name": "",
          "type": "uint256"
        }
      ],
      "stateMutability": "view",
      "type": "function"
    },
    {
      "inputs": [
        {
          "internalType": "address",
          "name": "",
          "type": "address"
        }
      ],
      "name": "loans",
      "outputs": [
        {
          "internalType": "address",
          "name": "borrower",
          "type": "address"
        },
        {
          "internalType": "uint256",
          "name": "amount",
          "type": "uint256"
        },
        {
          "internalType": "string",
          "name": "userId",
          "type": "string"
        },
        {
          "internalType": "string",
          "name": "invoiceId",
          "type": "string"
        },
        {
          "internalType": "bool",
          "name": "payed",
          "type": "bool"
        }
      ],
      "stateMutability": "view",
      "type": "function"
    },
    {
      "inputs": [
        {
          "internalType": "address payable",
          "name": "_borrower",
          "type": "address"
        },
        {
          "internalType": "uint256",
          "name": "_amount",
          "type": "uint256"
        },
        {
          "internalType": "string",
          "name": "_userId",
          "type": "string"
        },
        {
          "internalType": "string",
          "name": "_invoiceId",
          "type": "string"
        }
      ],
      "name": "payLone",
      "outputs": [],
      "stateMutability": "nonpayable",
      "type": "function"
    },
    {
      "inputs": [],
      "name": "tokenAddress",
      "outputs": [
        {
          "internalType": "address",
          "name": "",
          "type": "address"
        }
      ],
      "stateMutability": "view",
      "type": "function"
    },
    {
      "inputs": [
        {
          "internalType": "uint256",
          "name": "_amount",
          "type": "uint256"
        }
      ],
      "name": "withdrawFunds",
      "outputs": [],
      "stateMutability": "nonpayable",
      "type": "function"
    }
  ],
  "bytecode": "0x6080604052670de0b6b3a76400006000553480156200001d57600080fd5b5060405162001fdd38038062001fdd8339818101604052810190620000439190620000f5565b80600160006101000a81548173ffffffffffffffffffffffffffffffffffffffff021916908373ffffffffffffffffffffffffffffffffffffffff1602179055505062000127565b600080fd5b600073ffffffffffffffffffffffffffffffffffffffff82169050919050565b6000620000bd8262000090565b9050919050565b620000cf81620000b0565b8114620000db57600080fd5b50565b600081519050620000ef81620000c4565b92915050565b6000602082840312156200010e576200010d6200008b565b5b60006200011e84828501620000de565b91505092915050565b611ea680620001376000396000f3fe6080604052600436106100865760003560e01c806373b4086b1161005957806373b4086b146101245780637ab70ce0146101655780639d76ea5814610190578063b6b55f25146101bb578063d3d38193146101d757610086565b806324600fc31461008b57806327e235e3146100a257806356f217a9146100df5780636da357d214610108575b600080fd5b34801561009757600080fd5b506100a0610214565b005b3480156100ae57600080fd5b506100c960048036038101906100c491906111c8565b610384565b6040516100d6919061120e565b60405180910390f35b3480156100eb57600080fd5b50610106600480360381019061010191906113d9565b61039c565b005b610122600480360381019061011d91906113d9565b6106e1565b005b34801561013057600080fd5b5061014b600480360381019061014691906111c8565b610d61565b60405161015c959493929190611521565b60405180910390f35b34801561017157600080fd5b5061017a610ed4565b604051610187919061120e565b60405180910390f35b34801561019c57600080fd5b506101a5610f1b565b6040516101b29190611582565b60405180910390f35b6101d560048036038101906101d0919061159d565b610f41565b005b3480156101e357600080fd5b506101fe60048036038101906101f991906111c8565b6110ce565b60405161020b919061120e565b60405180910390f35b6000600260003373ffffffffffffffffffffffffffffffffffffffff1673ffffffffffffffffffffffffffffffffffffffff1681526020019081526020016000205490506000811161029b576040517f08c379a000000000000000000000000000000000000000000000000000000000815260040161029290611616565b60405180910390fd5b6000600260003373ffffffffffffffffffffffffffffffffffffffff1673ffffffffffffffffffffffffffffffffffffffff16815260200190815260200160002081905550600160009054906101000a900473ffffffffffffffffffffffffffffffffffffffff1673ffffffffffffffffffffffffffffffffffffffff1663a9059cbb33836040518363ffffffff1660e01b815260040161033d929190611636565b6020604051808303816000875af115801561035c573d6000803e3d6000fd5b505050506040513d601f19601f82011682018060405250810190610380919061168b565b5050565b60026020528060005260406000206000915090505481565b600073ffffffffffffffffffffffffffffffffffffffff16600360008673ffffffffffffffffffffffffffffffffffffffff1673ffffffffffffffffffffffffffffffffffffffff16815260200190815260200160002060000160009054906101000a900473ffffffffffffffffffffffffffffffffffffffff1673ffffffffffffffffffffffffffffffffffffffff160361046d576040517f08c379a000000000000000000000000000000000000000000000000000000000815260040161046490611704565b60405180910390fd5b60001515600360008673ffffffffffffffffffffffffffffffffffffffff1673ffffffffffffffffffffffffffffffffffffffff16815260200190815260200160002060040160009054906101000a900460ff16151514610503576040517f08c379a00000000000000000000000000000000000000000000000000000000081526004016104fa90611796565b60405180910390fd5b600360008573ffffffffffffffffffffffffffffffffffffffff1673ffffffffffffffffffffffffffffffffffffffff16815260200190815260200160002060010154831015610588576040517f08c379a000000000000000000000000000000000000000000000000000000000815260040161057f90611802565b60405180910390fd5b600160009054906101000a900473ffffffffffffffffffffffffffffffffffffffff1673ffffffffffffffffffffffffffffffffffffffff166323b872dd3330866040518463ffffffff1660e01b81526004016105e793929190611822565b6020604051808303816000875af1158015610606573d6000803e3d6000fd5b505050506040513d601f19601f8201168201806040525081019061062a919061168b565b506001600360008673ffffffffffffffffffffffffffffffffffffffff1673ffffffffffffffffffffffffffffffffffffffff16815260200190815260200160002060040160006101000a81548160ff0219169083151502179055508373ffffffffffffffffffffffffffffffffffffffff167fa6ca4b78eef8aee9057eca13ba7feecc5afc92922268cc19ff7558ee14aa105684848460016040516106d39493929190611859565b60405180910390a250505050565b60008311610724576040517f08c379a000000000000000000000000000000000000000000000000000000000815260040161071b9061191e565b60405180910390fd5b82600160009054906101000a900473ffffffffffffffffffffffffffffffffffffffff1673ffffffffffffffffffffffffffffffffffffffff166370a08231306040518263ffffffff1660e01b81526004016107809190611582565b602060405180830381865afa15801561079d573d6000803e3d6000fd5b505050506040513d601f19601f820116820180604052508101906107c19190611953565b1015610802576040517f08c379a00000000000000000000000000000000000000000000000000000000081526004016107f9906119cc565b60405180910390fd5b600073ffffffffffffffffffffffffffffffffffffffff16600360008673ffffffffffffffffffffffffffffffffffffffff1673ffffffffffffffffffffffffffffffffffffffff16815260200190815260200160002060000160009054906101000a900473ffffffffffffffffffffffffffffffffffffffff1673ffffffffffffffffffffffffffffffffffffffff1603610aaf576040518060a001604052808573ffffffffffffffffffffffffffffffffffffffff16815260200184815260200183815260200182815260200160001515815250600360008673ffffffffffffffffffffffffffffffffffffffff1673ffffffffffffffffffffffffffffffffffffffff16815260200190815260200160002060008201518160000160006101000a81548173ffffffffffffffffffffffffffffffffffffffff021916908373ffffffffffffffffffffffffffffffffffffffff16021790555060208201518160010155604082015181600201908161097d9190611bf8565b5060608201518160030190816109939190611bf8565b5060808201518160040160006101000a81548160ff021916908315150217905550905050600160009054906101000a900473ffffffffffffffffffffffffffffffffffffffff1673ffffffffffffffffffffffffffffffffffffffff1663a9059cbb33856040518363ffffffff1660e01b8152600401610a14929190611636565b6020604051808303816000875af1158015610a33573d6000803e3d6000fd5b505050506040513d601f19601f82011682018060405250810190610a57919061168b565b508373ffffffffffffffffffffffffffffffffffffffff167f67948eb623a2f638d8e5d2b5388fd9692bfbccaf99d246c99c63b1c6bda48eaf848484604051610aa293929190611cca565b60405180910390a2610d5b565b6001600360008673ffffffffffffffffffffffffffffffffffffffff1673ffffffffffffffffffffffffffffffffffffffff16815260200190815260200160002060040160006101000a81548160ff0219169083151502179055610b48576040517f08c379a0000000000000000000000000000000000000000000000000000000008152600401610b3f90611d5b565b60405180910390fd5b6040518060a001604052808573ffffffffffffffffffffffffffffffffffffffff16815260200184815260200183815260200182815260200160001515815250600360008673ffffffffffffffffffffffffffffffffffffffff1673ffffffffffffffffffffffffffffffffffffffff16815260200190815260200160002060008201518160000160006101000a81548173ffffffffffffffffffffffffffffffffffffffff021916908373ffffffffffffffffffffffffffffffffffffffff160217905550602082015181600101556040820151816002019081610c2d9190611bf8565b506060820151816003019081610c439190611bf8565b5060808201518160040160006101000a81548160ff021916908315150217905550905050600160009054906101000a900473ffffffffffffffffffffffffffffffffffffffff1673ffffffffffffffffffffffffffffffffffffffff1663a9059cbb33856040518363ffffffff1660e01b8152600401610cc4929190611636565b6020604051808303816000875af1158015610ce3573d6000803e3d6000fd5b505050506040513d601f19601f82011682018060405250810190610d07919061168b565b508373ffffffffffffffffffffffffffffffffffffffff167f67948eb623a2f638d8e5d2b5388fd9692bfbccaf99d246c99c63b1c6bda48eaf848484604051610d5293929190611cca565b60405180910390a25b50505050565b60036020528060005260406000206000915090508060000160009054906101000a900473ffffffffffffffffffffffffffffffffffffffff1690806001015490806002018054610db090611a1b565b80601f0160208091040260200160405190810160405280929190818152602001828054610ddc90611a1b565b8015610e295780601f10610dfe57610100808354040283529160200191610e29565b820191906000526020600020905b815481529060010190602001808311610e0c57829003601f168201915b505050505090806003018054610e3e90611a1b565b80601f0160208091040260200160405190810160405280929190818152602001828054610e6a90611a1b565b8015610eb75780601f10610e8c57610100808354040283529160200191610eb7565b820191906000526020600020905b815481529060010190602001808311610e9a57829003601f168201915b5050505050908060040160009054906101000a900460ff16905085565b6000600260003373ffffffffffffffffffffffffffffffffffffffff1673ffffffffffffffffffffffffffffffffffffffff16815260200190815260200160002054905090565b600160009054906101000a900473ffffffffffffffffffffffffffffffffffffffff1681565b60008111610f84576040517f08c379a0000000000000000000000000000000000000000000000000000000008152600401610f7b90611ded565b60405180910390fd5b600160009054906101000a900473ffffffffffffffffffffffffffffffffffffffff1673ffffffffffffffffffffffffffffffffffffffff166323b872dd3330846040518463ffffffff1660e01b8152600401610fe393929190611822565b6020604051808303816000875af1158015611002573d6000803e3d6000fd5b505050506040513d601f19601f82011682018060405250810190611026919061168b565b5080600260003373ffffffffffffffffffffffffffffffffffffffff1673ffffffffffffffffffffffffffffffffffffffff16815260200190815260200160002060008282546110769190611e3c565b925050819055503373ffffffffffffffffffffffffffffffffffffffff167fe1fffcc4923d04b559f4d29a8bfc6cda04eb5b0d3c460751c2402c5c5cc9109c826040516110c3919061120e565b60405180910390a250565b6000808273ffffffffffffffffffffffffffffffffffffffff166370a08231306040518263ffffffff1660e01b815260040161110a9190611582565b602060405180830381865afa158015611127573d6000803e3d6000fd5b505050506040513d601f19601f8201168201806040525081019061114b9190611953565b905080915050919050565b6000604051905090565b600080fd5b600080fd5b600073ffffffffffffffffffffffffffffffffffffffff82169050919050565b60006111958261116a565b9050919050565b6111a58161118a565b81146111b057600080fd5b50565b6000813590506111c28161119c565b92915050565b6000602082840312156111de576111dd611160565b5b60006111ec848285016111b3565b91505092915050565b6000819050919050565b611208816111f5565b82525050565b600060208201905061122360008301846111ff565b92915050565b60006112348261116a565b9050919050565b61124481611229565b811461124f57600080fd5b50565b6000813590506112618161123b565b92915050565b611270816111f5565b811461127b57600080fd5b50565b60008135905061128d81611267565b92915050565b600080fd5b600080fd5b6000601f19601f8301169050919050565b7f4e487b7100000000000000000000000000000000000000000000000000000000600052604160045260246000fd5b6112e68261129d565b810181811067ffffffffffffffff82111715611305576113046112ae565b5b80604052505050565b6000611318611156565b905061132482826112dd565b919050565b600067ffffffffffffffff821115611344576113436112ae565b5b61134d8261129d565b9050602081019050919050565b82818337600083830152505050565b600061137c61137784611329565b61130e565b90508281526020810184848401111561139857611397611298565b5b6113a384828561135a565b509392505050565b600082601f8301126113c0576113bf611293565b5b81356113d0848260208601611369565b91505092915050565b600080600080608085870312156113f3576113f2611160565b5b600061140187828801611252565b94505060206114128782880161127e565b935050604085013567ffffffffffffffff81111561143357611432611165565b5b61143f878288016113ab565b925050606085013567ffffffffffffffff8111156114605761145f611165565b5b61146c878288016113ab565b91505092959194509250565b6114818161118a565b82525050565b600081519050919050565b600082825260208201905092915050565b60005b838110156114c15780820151818401526020810190506114a6565b60008484015250505050565b60006114d882611487565b6114e28185611492565b93506114f28185602086016114a3565b6114fb8161129d565b840191505092915050565b60008115159050919050565b61151b81611506565b82525050565b600060a0820190506115366000830188611478565b61154360208301876111ff565b818103604083015261155581866114cd565b9050818103606083015261156981856114cd565b90506115786080830184611512565b9695505050505050565b60006020820190506115976000830184611478565b92915050565b6000602082840312156115b3576115b2611160565b5b60006115c18482850161127e565b91505092915050565b7f4e6f2066756e647320617661696c61626c6520746f2077697468647261770000600082015250565b6000611600601e83611492565b915061160b826115ca565b602082019050919050565b6000602082019050818103600083015261162f816115f3565b9050919050565b600060408201905061164b6000830185611478565b61165860208301846111ff565b9392505050565b61166881611506565b811461167357600080fd5b50565b6000815190506116858161165f565b92915050565b6000602082840312156116a1576116a0611160565b5b60006116af84828501611676565b91505092915050565b7f4e6f206c6f616e20657869737420776974682074686973206163636f756e7400600082015250565b60006116ee601f83611492565b91506116f9826116b8565b602082019050919050565b6000602082019050818103600083015261171d816116e1565b9050919050565b7f6c6f616e20616c726561647920706179656420666f722074686973206163636f60008201527f756e740000000000000000000000000000000000000000000000000000000000602082015250565b6000611780602383611492565b915061178b82611724565b604082019050919050565b600060208201905081810360008301526117af81611773565b9050919050565b7f496e73756666696369656e742072657061796d656e7420616d6f756e74000000600082015250565b60006117ec601d83611492565b91506117f7826117b6565b602082019050919050565b6000602082019050818103600083015261181b816117df565b9050919050565b60006060820190506118376000830186611478565b6118446020830185611478565b61185160408301846111ff565b949350505050565b600060808201905061186e60008301876111ff565b818103602083015261188081866114cd565b9050818103604083015261189481856114cd565b90506118a36060830184611512565b95945050505050565b7f426f72726f7720616d6f756e74206d757374206265206772656174657220746860008201527f616e207a65726f00000000000000000000000000000000000000000000000000602082015250565b6000611908602783611492565b9150611913826118ac565b604082019050919050565b60006020820190508181036000830152611937816118fb565b9050919050565b60008151905061194d81611267565b92915050565b60006020828403121561196957611968611160565b5b60006119778482850161193e565b91505092915050565b7f496e73756666696369656e742066756e647320696e2074686520706f6f6c0000600082015250565b60006119b6601e83611492565b91506119c182611980565b602082019050919050565b600060208201905081810360008301526119e5816119a9565b9050919050565b7f4e487b7100000000000000000000000000000000000000000000000000000000600052602260045260246000fd5b60006002820490506001821680611a3357607f821691505b602082108103611a4657611a456119ec565b5b50919050565b60008190508160005260206000209050919050565b60006020601f8301049050919050565b600082821b905092915050565b600060088302611aae7fffffffffffffffffffffffffffffffffffffffffffffffffffffffffffffffff82611a71565b611ab88683611a71565b95508019841693508086168417925050509392505050565b6000819050919050565b6000611af5611af0611aeb846111f5565b611ad0565b6111f5565b9050919050565b6000819050919050565b611b0f83611ada565b611b23611b1b82611afc565b848454611a7e565b825550505050565b600090565b611b38611b2b565b611b43818484611b06565b505050565b5b81811015611b6757611b5c600082611b30565b600181019050611b49565b5050565b601f821115611bac57611b7d81611a4c565b611b8684611a61565b81016020851015611b95578190505b611ba9611ba185611a61565b830182611b48565b50505b505050565b600082821c905092915050565b6000611bcf60001984600802611bb1565b1980831691505092915050565b6000611be88383611bbe565b9150826002028217905092915050565b611c0182611487565b67ffffffffffffffff811115611c1a57611c196112ae565b5b611c248254611a1b565b611c2f828285611b6b565b600060209050601f831160018114611c625760008415611c50578287015190505b611c5a8582611bdc565b865550611cc2565b601f198416611c7086611a4c565b60005b82811015611c9857848901518255600182019150602085019450602081019050611c73565b86831015611cb55784890151611cb1601f891682611bbe565b8355505b6001600288020188555050505b505050505050565b6000606082019050611cdf60008301866111ff565b8181036020830152611cf181856114cd565b90508181036040830152611d0581846114cd565b9050949350505050565b7f506c656173652070617920746865206578697374696e67206c6f616e20000000600082015250565b6000611d45601d83611492565b9150611d5082611d0f565b602082019050919050565b60006020820190508181036000830152611d7481611d38565b9050919050565b7f4465706f73697420616d6f756e74206d7573742062652067726561746572207460008201527f68616e207a65726f000000000000000000000000000000000000000000000000602082015250565b6000611dd7602883611492565b9150611de282611d7b565b604082019050919050565b60006020820190508181036000830152611e0681611dca565b9050919050565b7f4e487b7100000000000000000000000000000000000000000000000000000000600052601160045260246000fd5b6000611e47826111f5565b9150611e52836111f5565b9250828201905080821115611e6a57611e69611e0d565b5b9291505056fea26469706673582212204c6015f6f66745d31369eba5301fd11c3f9d896ff9c17730e9aded1baef36a7b64736f6c63430008140033",
  "linkReferences": {},
  "deployedLinkReferences": {}
}